{
  "abi": [
    {
      "type": "constructor",
      "inputs": [
        {
          "name": "initialOracleAddress",
          "type": "address",
          "internalType": "address"
        }
      ],
      "stateMutability": "nonpayable"
    },
    {
      "type": "function",
      "name": "chatRequests",
      "inputs": [
        {
          "name": "",
          "type": "uint256",
          "internalType": "uint256"
        }
      ],
      "outputs": [
        {
          "name": "owner",
          "type": "address",
          "internalType": "address"
        },
        {
          "name": "cid",
          "type": "string",
          "internalType": "string"
        },
        {
          "name": "messagesCount",
          "type": "uint256",
          "internalType": "uint256"
        }
      ],
      "stateMutability": "view"
    },
    {
      "type": "function",
      "name": "getConfig",
      "inputs": [],
      "outputs": [
        {
          "name": "",
          "type": "tuple",
          "internalType": "struct IOracle.OpenAiRequest",
          "components": [
            {
              "name": "model",
              "type": "string",
              "internalType": "string"
            },
            {
              "name": "frequencyPenalty",
              "type": "int8",
              "internalType": "int8"
            },
            {
              "name": "logitBias",
              "type": "string",
              "internalType": "string"
            },
            {
              "name": "maxTokens",
              "type": "uint32",
              "internalType": "uint32"
            },
            {
              "name": "presencePenalty",
              "type": "int8",
              "internalType": "int8"
            },
            {
              "name": "responseFormat",
              "type": "string",
              "internalType": "string"
            },
            {
              "name": "seed",
              "type": "uint256",
              "internalType": "uint256"
            },
            {
              "name": "stop",
              "type": "string",
              "internalType": "string"
            },
            {
              "name": "temperature",
              "type": "uint256",
              "internalType": "uint256"
            },
            {
              "name": "topP",
              "type": "uint256",
              "internalType": "uint256"
            },
            {
              "name": "tools",
              "type": "string",
              "internalType": "string"
            },
            {
              "name": "toolChoice",
              "type": "string",
              "internalType": "string"
            },
            {
              "name": "user",
              "type": "string",
              "internalType": "string"
            }
          ]
        }
      ],
      "stateMutability": "view"
    },
    {
      "type": "function",
      "name": "getOracleAddress",
      "inputs": [],
      "outputs": [
        {
          "name": "",
          "type": "address",
          "internalType": "address"
        }
      ],
      "stateMutability": "view"
    },
    {
      "type": "function",
      "name": "getRequestHistory",
      "inputs": [
        {
          "name": "requestId",
          "type": "uint256",
          "internalType": "uint256"
        }
      ],
      "outputs": [
        {
          "name": "",
          "type": "tuple[]",
          "internalType": "struct IOracle.Message[]",
          "components": [
            {
              "name": "role",
              "type": "string",
              "internalType": "string"
            },
            {
              "name": "content",
              "type": "tuple[]",
              "internalType": "struct IOracle.Content[]",
              "components": [
                {
                  "name": "contentType",
                  "type": "string",
                  "internalType": "string"
                },
                {
                  "name": "value",
                  "type": "string",
                  "internalType": "string"
                }
              ]
            }
          ]
        }
      ],
      "stateMutability": "view"
    },
    {
      "type": "function",
      "name": "onOracleOpenAiLlmResponse",
      "inputs": [
        {
          "name": "requestId",
          "type": "uint256",
          "internalType": "uint256"
        },
        {
          "name": "response",
          "type": "tuple",
          "internalType": "struct IOracle.OpenAiResponse",
          "components": [
            {
              "name": "id",
              "type": "string",
              "internalType": "string"
            },
            {
              "name": "content",
              "type": "string",
              "internalType": "string"
            },
            {
              "name": "functionName",
              "type": "string",
              "internalType": "string"
            },
            {
              "name": "functionArguments",
              "type": "string",
              "internalType": "string"
            },
            {
              "name": "created",
              "type": "uint64",
              "internalType": "uint64"
            },
            {
              "name": "model",
              "type": "string",
              "internalType": "string"
            },
            {
              "name": "systemFingerprint",
              "type": "string",
              "internalType": "string"
            },
            {
              "name": "object",
              "type": "string",
              "internalType": "string"
            },
            {
              "name": "completionTokens",
              "type": "uint32",
              "internalType": "uint32"
            },
            {
              "name": "promptTokens",
              "type": "uint32",
              "internalType": "uint32"
            },
            {
              "name": "totalTokens",
              "type": "uint32",
              "internalType": "uint32"
            }
          ]
        },
        {
          "name": "errorMessage",
          "type": "string",
          "internalType": "string"
        }
      ],
      "outputs": [],
      "stateMutability": "nonpayable"
    },
    {
      "type": "function",
      "name": "setOracleAddress",
      "inputs": [
        {
          "name": "newOracleAddress",
          "type": "address",
          "internalType": "address"
        }
      ],
      "outputs": [],
      "stateMutability": "nonpayable"
    },
    {
      "type": "function",
      "name": "submitRequest",
      "inputs": [
        {
          "name": "message",
          "type": "string",
          "internalType": "string"
        },
        {
          "name": "imageUrls",
          "type": "string[]",
          "internalType": "string[]"
        },
        {
          "name": "cid",
          "type": "string",
          "internalType": "string"
        }
      ],
      "outputs": [
        {
          "name": "i",
          "type": "uint256",
          "internalType": "uint256"
        }
      ],
      "stateMutability": "nonpayable"
    },
    {
      "type": "function",
      "name": "submitSingleImageRequest",
      "inputs": [
        {
          "name": "message",
          "type": "string",
          "internalType": "string"
        },
        {
          "name": "imageUrl",
          "type": "string",
          "internalType": "string"
        },
        {
          "name": "cid",
          "type": "string",
          "internalType": "string"
        }
      ],
      "outputs": [
        {
          "name": "i",
          "type": "uint256",
          "internalType": "uint256"
        }
      ],
      "stateMutability": "nonpayable"
    },
    {
      "type": "event",
      "name": "ChatCreated",
      "inputs": [
        {
          "name": "owner",
          "type": "address",
          "indexed": true,
          "internalType": "address"
        },
        {
          "name": "chatId",
          "type": "uint256",
          "indexed": true,
          "internalType": "uint256"
        }
      ],
      "anonymous": false
    },
    {
      "type": "event",
      "name": "OracleAddressUpdated",
      "inputs": [
        {
          "name": "newOracleAddress",
          "type": "address",
          "indexed": true,
          "internalType": "address"
        }
      ],
      "anonymous": false
    }
  ],
  "bytecode": {
    "object": "0x60803462000b7257601f62002ed338819003918201601f19168301916001600160401b03831184841017620005cd5780849260209460405283398101031262000b7257516001600160a01b0381169081900362000b725760018060a01b031933816002541617600255600354161760035560006001556040516101a0810181811060018060401b03821117620005cd576040526200009c62000b77565b600b81526a6770742d342d747572626f60a81b6020820152815260006020820152620000c762000b97565b6000815260408201526105dc606082015260006080820152620000e962000b77565b600f908181526e7b2274797065223a2274657874227d60881b602082015260a0830152600060c08301526200011d62000b97565b6000815260e0830152600561010083015260646101208301526200014062000b97565b600081526101408301526200015462000b97565b600081526101608301526200016862000b97565b60008152610180830152815180519092906001600160401b038111620005cd57600454600181811c9116801562000b67575b6020821014620005ac57601f811162000b01575b506020601f821160011462000a92578192939460009262000a86575b50508160011b916000199060031b1c1916176004555b602081015160ff19600554169060ff1617600555604081015191825160018060401b038111620005cd57600654600181811c9116801562000a7b575b6020821014620005ac57601f811162000a15575b506020601f8211600114620009a657819293946000926200099a575b50508160011b916000199060031b1c1916176006555b63ffffffff60608301511660075490608084015160201b64ff00000000169164ffffffffff1916171760075560a082015191825160018060401b038111620005cd57600854600181811c911680156200098f575b6020821014620005ac57601f811162000929575b506020601f8211600114620008ba5781929394600092620008ae575b50508160011b916000199060031b1c1916176008555b60c081015160095560e081015180519092906001600160401b038111620005cd57600a54600181811c91168015620008a3575b6020821014620005ac57601f81116200083d575b506020601f8211600114620007ce5781929394600092620007c2575b50508160011b916000199060031b1c191617600a555b610100820151600b55610120820151600c5561014082015180519092906001600160401b038111620005cd57600d54600181811c91168015620007b7575b6020821014620005ac57601f81116200074d575b506020601f8211600114620006de5781929394600092620006d2575b50508160011b916000199060031b1c191617600d555b6101608101518051906001600160401b038211620005cd57600e54600181811c91168015620006c7575b6020821014620005ac57601f81116200066e575b50602090601f8311600114620005ef5761018093929160009183620005e3575b50508160011b916000199060031b1c191617600e555b015180519091906001600160401b038111620005cd578154600181811c91168015620005c2575b6020821014620005ac57601f81116200055f575b50602092601f8211600114620004f65792819293600092620004ea575b50508160011b916000199060031b1c19161790555b6040516122fb908162000bb88239f35b015190503880620004c5565b601f198216938360005260206000209160005b8681106200054657508360019596106200052c575b505050811b019055620004da565b015160001960f88460031b161c191690553880806200051e565b9192602060018192868501518155019401920162000509565b826000526020600020601f830160051c81019160208410620005a1575b601f0160051c01905b818110620005945750620004a8565b6000815560010162000585565b90915081906200057c565b634e487b7160e01b600052602260045260246000fd5b90607f169062000494565b634e487b7160e01b600052604160045260246000fd5b01519050388062000457565b600e600090815260008051602062002eb3833981519152929190601f198516905b818110620006555750916001939185610180979694106200063b575b505050811b01600e556200046d565b015160001960f88460031b161c191690553880806200062c565b9293602060018192878601518155019501930162000610565b600e60005260008051602062002eb3833981519152601f840160051c81019160208510620006bc575b601f0160051c01905b818110620006af575062000437565b60008155600101620006a0565b909150819062000697565b90607f169062000423565b015190503880620003e3565b600d60005260206000209060005b601f1984168110620007345750600193949583601f198116106200071a575b505050811b01600d55620003f9565b015160001960f88460031b161c191690553880806200070b565b9091602060018192858a015181550193019101620006ec565b600d6000527fd7b6990105719101dabeb77144f2a3385c8033acd3af97e9423a695e81ad1eb5601f830160051c81019160208410620007ac575b601f0160051c01905b8181106200079f5750620003c7565b6000815560010162000790565b909150819062000787565b90607f1690620003b3565b0151905038806200035f565b600a60005260206000209060005b601f1984168110620008245750600193949583601f198116106200080a575b505050811b01600a5562000375565b015160001960f88460031b161c19169055388080620007fb565b9091602060018192858a015181550193019101620007dc565b600a6000527fc65a7bb8d6351c1cf70c95a316cc6a92839c986682d98bc35f958f4883f9d2a8601f830160051c8101602084106200089b575b601f830160051c820181106200088e57505062000343565b6000815560010162000876565b508062000876565b90607f16906200032f565b015190503880620002e6565b600860005260206000209060005b601f1984168110620009105750600193949583601f19811610620008f6575b505050811b01600855620002fc565b015160001960f88460031b161c19169055388080620008e7565b9091602060018192858a015181550193019101620008c8565b60086000527ff3f7a9fe364faab93b216da50a3214154f22a0a2b415b23a84c8169e8b636ee3601f830160051c81016020841062000987575b601f830160051c820181106200097a575050620002ca565b6000815560010162000962565b508062000962565b90607f1690620002b6565b0151905038806200024c565b600660005260206000209060005b601f1984168110620009fc5750600193949583601f19811610620009e2575b505050811b0160065562000262565b015160001960f88460031b161c19169055388080620009d3565b9091602060018192858a015181550193019101620009b4565b60066000527ff652222313e28459528d920b65115c16c04f3efc82aaedc97be59f3f377c0d3f601f830160051c81016020841062000a73575b601f830160051c8201811062000a6657505062000230565b6000815560010162000a4e565b508062000a4e565b90607f16906200021c565b015190503880620001ca565b600460005260206000209060005b601f198416811062000ae85750600193949583601f1981161062000ace575b505050811b01600455620001e0565b015160001960f88460031b161c1916905538808062000abf565b9091602060018192858a01518155019301910162000aa0565b60046000527f8a35acfbc15ff81a39ae7d344fd709f28e8600b4aa8c65c6b64bfe7fe36bd19b601f830160051c81016020841062000b5f575b601f830160051c8201811062000b52575050620001ae565b6000815560010162000b3a565b508062000b3a565b90607f16906200019a565b600080fd5b60408051919082016001600160401b03811183821017620005cd57604052565b60405190602082016001600160401b03811183821017620005cd5760405256fe608060405260048036101561001357600080fd5b60003560e01c80631141b5b21461138e5780633aa4472414610f2c5780634c69c00f14610e865780634cecd88e14610a155780635e894f5814610800578063b18b78dd146107d7578063b2a509d8146107675763c3f909d41461007557600080fd5b3461076257600036600319011261076257606061018060405161009781611646565b82815260006020820152826040820152600083820152600060808201528260a0820152600060c08201528260e08201526000610100820152600061012082015282610140820152826101608201520152604051906100f482611646565b604051908160008254926101078461174d565b808452936001811690811561074057506001146106e0575b5061012c92500382611663565b815260055460000b60208201526040516000816006549161014c8361174d565b80835292600181169081156106c15750600114610660575b61017092500382611663565b604082015260075463ffffffff8116606083015260201c60000b6080820152604051600081600854916101a28361174d565b808352926001811690811561064157506001146105e0575b6101c692500382611663565b60a082015260095460c0820152604051600a548160006101e58361174d565b80835292600181169081156105c15750600114610560575b61020992500382611663565b60e0820152600b54610100820152600c54610120820152604051600d548160006102328361174d565b808352926001811690811561054157506001146104e0575b61025692500382611663565b610140820152604051600e5481600061026e8361174d565b80835292600181169081156104c15750600114610460575b61029292500382611663565b61016082015260405190600091600f546102ab8161174d565b808352906001811690811561043c57506001146103e3575b506102d3816103df940382611663565b610180820152604051918291602083526101806103ca6103b461038461036361033061030d87516101a060208c01526101c08b0190611728565b602088015160000b60408b01526040880151601f198b83030160608c0152611728565b63ffffffff60608801511660808a0152608087015160000b60a08a015260a0870151601f198a83030160c08b0152611728565b60c086015160e089015260e0860151601f19898303016101008a0152611728565b610100850151610120880152610120850151610140880152610140850151601f1988830301610160890152611728565b610160840151868203601f190184880152611728565b910151838203601f19016101a0850152611728565b0390f35b9250600f6000527f8d1108e10bcb7c27dddfc02ed9d693a074039d026cf4ea4240b40f7d581ac8026000905b8482106104265750810160200192506102d36102c3565b600181602092548385870101520191019061040f565b60ff191660208085019190915291151560051b830190910193506102d390506102c3565b5090600e6000527fbb7b4a454dc3493923482f07822329ed19e8244eff582cc204f8554c3620c3fd906000915b8183106104a557505090602061029292820101610286565b602091935080600191548385880101520191019091839261048d565b6020925061029294915060ff191682840152151560051b820101610286565b5090600d6000527fd7b6990105719101dabeb77144f2a3385c8033acd3af97e9423a695e81ad1eb5906000915b8183106105255750509060206102569282010161024a565b602091935080600191548385880101520191019091839261050d565b6020925061025694915060ff191682840152151560051b82010161024a565b5090600a6000527fc65a7bb8d6351c1cf70c95a316cc6a92839c986682d98bc35f958f4883f9d2a8906000915b8183106105a5575050906020610209928201016101fd565b602091935080600191548385880101520191019091839261058d565b6020925061020994915060ff191682840152151560051b8201016101fd565b509060086000527ff3f7a9fe364faab93b216da50a3214154f22a0a2b415b23a84c8169e8b636ee3906000915b8183106106255750509060206101c6928201016101ba565b602091935080600191548385880101520191019091839261060d565b602092506101c694915060ff191682840152151560051b8201016101ba565b509060066000527ff652222313e28459528d920b65115c16c04f3efc82aaedc97be59f3f377c0d3f906000915b8183106106a557505090602061017092820101610164565b602091935080600191548385880101520191019091839261068d565b6020925061017094915060ff191682840152151560051b820101610164565b6000908152919290507f8a35acfbc15ff81a39ae7d344fd709f28e8600b4aa8c65c6b64bfe7fe36bd19b5b81831061072457505090602061012c928201013861011f565b602091935080600191548385880101520191019091839261070b565b90506020925061012c94915060ff191682840152151560051b8201013861011f565b600080fd5b503461076257602036600319011261076257356000526000602052604060002060018060a01b038154166002604051926107af846107a88160018501611787565b0385611663565b01546107cd6040519384938452606060208501526060840190611728565b9060408301520390f35b34610762576000366003190112610762576003546040516001600160a01b039091168152602090f35b503461076257602090816003193601126107625735600052600081526003604060002001908154610830816116dc565b9061083e6040519283611663565b808252828201908194600052836000206000925b828410610945578585886040519183830190848452518091526040830193600560408360051b86010193956000915b84831061088e5786860387f35b909192809495603f198882030184528851826108b38251604085526040850190611728565b9101519183818303910152815180825283820190848082881b85010194019260005b8281106108f75750505050509080600192990193019301919694939290610881565b919395806109336001939597601f19878203018952895190836109238351604084526040840190611728565b9201519084818403910152611728565b970195019101918995949391926108d5565b8560405161095281611614565b60405161096a816109638188611787565b0382611663565b8152600180850190815461097d816116dc565b9261098b6040519485611663565b8184526000908152858120908685015b8382106109c1575050505050928160019484600295940152815201920193019290610852565b8495969760029160409693949596516109d981611614565b6040516109ea81610963818b611787565b81526040516109ff8161096381898c01611787565b83820152815201930191018c969594939261099b565b503461076257600319906060368301126107625760249182359067ffffffffffffffff9081831161076257610160809184360301126107625760405190810181811083821117610e72576040528284013582811161076257610a7c90853691860101611685565b81528483013582811161076257610a9890853691860101611685565b90602093848201928352604481013584811161076257610abd90873691840101611685565b6040830152606481013584811161076257610add90873691840101611685565b60608301526084810135848116810361076257608083015260a481013584811161076257610b1090873691840101611685565b60a083015260c481013584811161076257610b3090873691840101611685565b60c083015260e48101359084821161076257610144610b8c91610b5b610140948a3691840101611685565b60e0860152610b6d61010482016116f4565b610100860152610b8061012482016116f4565b610120860152016116f4565b91015260443582811161076257610ba69036908601611685565b6003549094906001600160a01b03163303610e385780356000526000845260406000209260026003850194019687546000198101908111610e2457610beb908661191d565b50604051878101918160008254610c018161174d565b936001918d600182169182600014610e05575050600114610dc5575b5050610c32925003601f198101835282611663565b51902060405187810190633ab9b2b960e11b8252858152610c5281611614565b51902003610d83576040519286840192831184841017610d70575050806040526000825260405185810190610ca0878281610c938c87815193849201611705565b8101038084520182611663565b51902091610cbf866040518093610c9383830196879251928391611705565b51902014610d255750610d1792610cd4611834565b92610d0f60405194610ce586611614565b610ced612291565b8652610cfe838701918083526118c1565b51610d076118a1565b9052516118c1565b510152611982565b610d2181546122b6565b9055005b91610d179350610d33611834565b90610d0f60405194610d4486611614565b610d4c612291565b8652610d5d838701948086526118c1565b51610d666118a1565b90525192516118c1565b604190634e487b7160e01b600052526000fd5b826018606492886040519362461bcd60e51b85528401528201527f4e6f206d65737361676520746f20726573706f6e6420746f00000000000000006044820152fd5b8c925060005281600020906000915b858310610dec57505050610c32928201013880610c1d565b819392945080548386890101520192018b918593610dd4565b9250935050610c3294915060ff19168652801515028201013880610c1d565b50634e487b7160e01b600090815260118452fd5b60405162461bcd60e51b81529081018490526014818701527343616c6c6572206973206e6f74206f7261636c6560601b6044820152606490fd5b85604186634e487b7160e01b600052526000fd5b50346107625760203660031901126107625780356001600160a01b03818116929183900361076257600254163303610ef25750600380546001600160a01b031916821790557f107a9fafffb7ac890f780879e423760c9ffea8dcee8045681f40f542aede2cb8600080a2005b60649060206040519162461bcd60e51b8352820152601360248201527221b0b63632b91034b9903737ba1037bbb732b960691b6044820152fd5b50346107625760609060606003193601126107625767ffffffffffffffff90803582811161076257610f619036908301611685565b916024908135938185116107625736602386011215610762578484013595610f88876116dc565b95610f966040519788611663565b878752602097858989019160051b8301019136831161076257868101915b838310611368575050505060443583811161076257610fd69036908701611685565b95600196875460005260008952604060002094336bffffffffffffffffffffffff60a01b87541617865588860191805191821161135457611017835461174d565b8b601f8211611318575b50508a90601f83116001146112b2576110539291600091836112a7575b50508160011b916000199060031b1c19161790565b90555b80519187830180931161129357908291611072899695946116dc565b926110806040519485611663565b80845261108f601f19916116dc565b01908a60005b83811061126157505050506110ed604051936110b085611614565b6110b8611881565b85528a8501938452604051906110cd82611614565b6110d56118a1565b82528b8201528351906110e7826118c1565b526118c1565b506000855b6111dc575b5050509061110a60029260038301611982565b0155825492808401918285116111c9575055600354604051633c38a5f560e01b815291849183916001600160a01b0390911690829060009082906111519089908301611d6e565b03925af19081156111bd578391611194575b50506040519080337fd1de2c4de50323207202f3df0bb1dec1a42e233aec245f25519d674c10bd72ca600080a38152f35b813d83116111b6575b6111a78183611663565b81010312610762578138611163565b503d61119d565b6040513d6000823e3d90fd5b634e487b7160e01b600090815260118552fd5b9091929394825182101561125957506111f581836118e4565b516040519061120382611614565b61120b6118f8565b82528a82015283518983019182841161124557828261123a926112348e99989795968a976118e4565b526118e4565b5001839594936110f2565b8860118b634e487b7160e01b600052526000fd5b9493926110f7565b81929394959697985060405161127681611614565b848152848382015282828901015201908a97969594939291611095565b85601188634e487b7160e01b600052526000fd5b01519050388061103e565b8a92918c91601f1984168660005283600020936000905b8282106112ff57505084116112e6575b505050811b019055611056565b015160001960f88460031b161c191690553880806112d9565b8484015186558f979095019493840193908101906112c9565b61134391856000528160002090601f860160051c820192861061134a575b601f0160051c019061181d565b388b611021565b9091508190611336565b8760418a634e487b7160e01b600052526000fd5b8235878111610762578b9161138383928b3691870101611685565b815201920191610fb4565b50346107625760603660031901126107625767ffffffffffffffff908035828111610762576113c09036908301611685565b602435838111610762576113d79036908401611685565b91604435848111610762576113ef9036908301611685565b93600192835460005260209460008652604060002092336bffffffffffffffffffffffff60a01b8554161784558584019088519081116115ff57869798611439839897985461174d565b601f81116115cf575b508990601f831160011461155d579261147f836114f894611502979460029a99976000926112a75750508160011b916000199060031b1c19161790565b90555b61148a611834565b6114d16040519461149a86611614565b6114a2611881565b86528c8601928352604051906114b782611614565b6114bf6118a1565b82528d8201528251906110e7826118c1565b50604051916114df83611614565b6114e76118f8565b83528b83015251906110e7826118c1565b5060038301611982565b0155815491808301908184116115485755600354604051633c38a5f560e01b815291849183916001600160a01b0390911690829060009082906111519089908301611d6e565b601183634e487b7160e01b6000525260246000fd5b90601f19831691846000528b6000209260005b8d8282106115b95750509361150296936002999896938b93836114f898106115a0575b505050811b019055611482565b015160001960f88460031b161c19169055388080611593565b8385015186558d9b909501949384019301611570565b6115f990846000528b600020601f850160051c8101918d861061134a57601f0160051c019061181d565b38611442565b604186634e487b7160e01b6000525260246000fd5b6040810190811067ffffffffffffffff82111761163057604052565b634e487b7160e01b600052604160045260246000fd5b6101a0810190811067ffffffffffffffff82111761163057604052565b90601f8019910116810190811067ffffffffffffffff82111761163057604052565b81601f820112156107625780359067ffffffffffffffff821161163057604051926116ba601f8401601f191660200185611663565b8284526020838301011161076257816000926020809301838601378301015290565b67ffffffffffffffff81116116305760051b60200190565b359063ffffffff8216820361076257565b60005b8381106117185750506000910152565b8181015183820152602001611708565b9060209161174181518092818552858086019101611705565b601f01601f1916010190565b90600182811c9216801561177d575b602083101461176757565b634e487b7160e01b600052602260045260246000fd5b91607f169161175c565b8054600093926117968261174d565b918282526020936001916001811690816000146117fe57506001146117bd575b5050505050565b90939495506000929192528360002092846000945b8386106117ea575050505001019038808080806117b6565b8054858701830152940193859082016117d2565b60ff19168685015250505090151560051b0101915038808080806117b6565b818110611828575050565b6000815560010161181d565b60409060405161184381611614565b60018152809160005b6020808210156118795785516020929161186582611614565b60608083528183015282860101520161184c565b505091925050565b6040519061188e82611614565b60048252633ab9b2b960e11b6020830152565b604051906118ae82611614565b60048252631d195e1d60e21b6020830152565b8051156118ce5760200190565b634e487b7160e01b600052603260045260246000fd5b80518210156118ce5760209160051b010190565b6040519061190582611614565b60098252681a5b5859d957dd5c9b60ba1b6020830152565b80548210156118ce5760005260206000209060011b0190600090565b611943815461174d565b908161194d575050565b81601f6000931160011461195f575055565b90808391825261197e601f60208420940160051c84016001850161181d565b5555565b90815490680100000000000000009182811015611630576119aa90600194858201815561191d565b919091611d5857805180519267ffffffffffffffff938481116116305786906119d3835461174d565b93601f94858111611d1e575b50602090858311600114611cb5579180611a1392602096946000926112a75750508160011b916000199060031b1c19161790565b81555b019201518051948511611630578254858455808610611c48575b5060009283526020808420939491015b858510611a505750505050505050565b805190815180519084821161163057611a69875461174d565b868111611c18575b50602090868311600114611bb657611aa19291600091836112a75750508160011b916000199060031b1c19161790565b85555b6020888601920151918251848111611630578993611ac2835461174d565b878111611b7c575b50602090878311600114611b1057826002959360209593611b01936000926112a75750508160011b916000199060031b1c19161790565b90555b01940194019392611a40565b90601f1983169184600052816000209260005b818110611b6457509287928592600298966020989610611b4b575b505050811b019055611b04565b015160001960f88460031b161c19169055388080611b3e565b8284015185558e989094019360209384019301611b23565b611ba79084600052602060002060058a808701821c83019360208810611bad575b01901c019061181d565b38611aca565b93508293611b9d565b8a9291601f1983169189600052816000209260005b818110611c0057508411611be7575b505050811b018555611aa4565b015160001960f88460031b161c19169055388080611bda565b8284015185558e969094019360209384019301611bcb565b611c4290886000526020600020600589808701821c83019360208810611bad5701901c019061181d565b38611a71565b6001600160ff1b038181168203611c9f5786168603611c9f5783600052602060002090871b81019086881b015b818110611c825750611a30565b80611c8e600292611939565b611c99898201611939565b01611c75565b634e487b7160e01b600052601160045260246000fd5b90601f1983169185600052816000209260005b818110611d0657509185939185602098969410611ced575b505050811b018155611a16565b015160001960f88460031b161c19169055388080611ce0565b8284015185558c969094019360209384019301611cc8565b611d49908560005260206000208780860160051c82019260208710611d4f575b0160051c019061181d565b386119df565b92508192611d3e565b634e487b7160e01b600052600060045260246000fd5b90815260206040818301526101a0806040840152600060045493611d918561174d565b806101e0830152610200906001968781169081600014612277575060011461221c575b5050600592835460000b6060830152603f19908183850301608084015260009360065490611de18261174d565b91828252888a821691826000146121fe5750506001146121a4575b505060075463ffffffff811660a0850152861c60000b60c0840152818385030160e084015260009360085490611e318261174d565b91828252888a8216918260001461218657505060011461212c575b50506009546101008401528284038201610120840152600a54600094611e718261174d565b91828252888a8216918260001461210e5750506001146120b4575b5050600b54610140840152600c546101608401528284038201610180840152600d54600094611eba8261174d565b91828252888a8216918260001461209657505060011461203c575b5050828403820190830152600e54600093611eef8261174d565b9182825287898216918260001461201c575050600114611fbe575b50506101c09082840301910152600093600f54611f268161174d565b80845293818316918215611f9f575050600114611f45575b5050505090565b92935090600f6000527f8d1108e10bcb7c27dddfc02ed9d693a074039d026cf4ea4240b40f7d581ac80292846000945b838610611f8b5750505050010138808080611f3e565b805485870183015294019385908201611f75565b925093929495505060ff1916848401521515901b010138808080611f3e565b8691929450600e6000527fbb7b4a454dc3493923482f07822329ed19e8244eff582cc204f8554c3620c3fd90886000925b85841061200657505001019290506101c038611f0a565b80548385018601528994909301928a9101611fef565b60ff191683820152921515871b90910190910193506101c0905038611f0a565b87929550600d6000527fd7b6990105719101dabeb77144f2a3385c8033acd3af97e9423a695e81ad1eb591896000935b828510612080575050500101923880611ed5565b80548585018701528a95909401938b910161206c565b60ff191683820152921515881b909101909101945038905080611ed5565b87929550600a6000527fc65a7bb8d6351c1cf70c95a316cc6a92839c986682d98bc35f958f4883f9d2a891896000935b8285106120f8575050500101923880611e8c565b80548585018701528a95909401938b91016120e4565b60ff191683820152921515881b909101909101945038905080611e8c565b8792955060086000527ff3f7a9fe364faab93b216da50a3214154f22a0a2b415b23a84c8169e8b636ee391896000935b828510612170575050500101923880611e4c565b80548585018701528a95909401938b910161215c565b60ff191683820152921515881b909101909101945038905080611e4c565b8792955060066000527ff652222313e28459528d920b65115c16c04f3efc82aaedc97be59f3f377c0d3f91896000935b8285106121e8575050500101923880611dfc565b80548585018701528a95909401938b91016121d4565b60ff191683820152921515881b909101909101945038905080611dfc565b9091925060046000527f8a35acfbc15ff81a39ae7d344fd709f28e8600b4aa8c65c6b64bfe7fe36bd19b85876000925b848410612263575050509050820101903880611db4565b80548685890101520191019087879161224c565b60ff19168484015250151560051b82010191503880611db4565b6040519061229e82611614565b6009825268185cdcda5cdd185b9d60ba1b6020830152565b6000198114611c9f576001019056fea264697066735822122000586f9451b2595a1741de739ab6ed705c2d9ae31b61f7522247bd870a21685064736f6c63430008180033bb7b4a454dc3493923482f07822329ed19e8244eff582cc204f8554c3620c3fd",
    "linkReferences": {}
  },
  "methodIdentifiers": {
    "chatRequests(uint256)": "b2a509d8",
    "getConfig()": "c3f909d4",
    "getOracleAddress()": "b18b78dd",
    "getRequestHistory(uint256)": "5e894f58",
    "onOracleOpenAiLlmResponse(uint256,(string,string,string,string,uint64,string,string,string,uint32,uint32,uint32),string)": "4cecd88e",
    "setOracleAddress(address)": "4c69c00f",
    "submitRequest(string,string[],string)": "3aa44724",
    "submitSingleImageRequest(string,string,string)": "1141b5b2"
  },
  "id": 20
}