{"abi":[{"type":"constructor","inputs":[{"name":"_owner","type":"address","internalType":"address"},{"name":"_jobManagerAddress","type":"address","internalType":"address"}],"stateMutability":"nonpayable"},{"type":"function","name":"getJobResult","inputs":[{"name":"_jobID","type":"uint256","internalType":"uint256"}],"outputs":[{"name":"","type":"string","internalType":"string"}],"stateMutability":"view"},{"type":"function","name":"initialize","inputs":[{"name":"_jobManagerAddress","type":"address","internalType":"address"}],"outputs":[],"stateMutability":"nonpayable"},{"type":"function","name":"owner","inputs":[],"outputs":[{"name":"","type":"address","internalType":"address"}],"stateMutability":"view"},{"type":"function","name":"renounceOwnership","inputs":[],"outputs":[],"stateMutability":"nonpayable"},{"type":"function","name":"runVideoScanner","inputs":[{"name":"folderCID","type":"string","internalType":"string"}],"outputs":[],"stateMutability":"nonpayable"},{"type":"function","name":"setJobManagerAddress","inputs":[{"name":"_jobManagerAddress","type":"address","internalType":"address"}],"outputs":[],"stateMutability":"nonpayable"},{"type":"function","name":"submitResults","inputs":[{"name":"id","type":"uint256","internalType":"uint256"},{"name":"dealId","type":"string","internalType":"string"},{"name":"dataId","type":"string","internalType":"string"}],"outputs":[],"stateMutability":"nonpayable"},{"type":"function","name":"transferOwnership","inputs":[{"name":"newOwner","type":"address","internalType":"address"}],"outputs":[],"stateMutability":"nonpayable"},{"type":"event","name":"Initialized","inputs":[{"name":"version","type":"uint64","indexed":false,"internalType":"uint64"}],"anonymous":false},{"type":"event","name":"JobCompleted","inputs":[{"name":"id","type":"uint256","indexed":false,"internalType":"uint256"},{"name":"dealId","type":"string","indexed":false,"internalType":"string"},{"name":"dataId","type":"string","indexed":false,"internalType":"string"}],"anonymous":false},{"type":"event","name":"JobCreated","inputs":[{"name":"id","type":"uint256","indexed":false,"internalType":"uint256"},{"name":"folderCID","type":"string","indexed":false,"internalType":"string"}],"anonymous":false},{"type":"event","name":"OwnershipTransferred","inputs":[{"name":"previousOwner","type":"address","indexed":true,"internalType":"address"},{"name":"newOwner","type":"address","indexed":true,"internalType":"address"}],"anonymous":false},{"type":"error","name":"InvalidInitialization","inputs":[]},{"type":"error","name":"NotInitializing","inputs":[]},{"type":"error","name":"OwnableInvalidOwner","inputs":[{"name":"owner","type":"address","internalType":"address"}]},{"type":"error","name":"OwnableUnauthorizedAccount","inputs":[{"name":"account","type":"address","internalType":"address"}]}],"bytecode":{"object":"0x60806040523480156200001157600080fd5b5060405162000d9c38038062000d9c8339810160408190526200003491620002cf565b816001600160a01b0381166200006557604051631e4fbdf760e01b8152600060048201526024015b60405180910390fd5b620000708162000084565b506200007c81620000d4565b505062000307565b600080546001600160a01b038381166001600160a01b0319831681178455604051919092169283917f8be0079c531659141344cd1fd0a4f28419497f9722a3daafe3b4186f6b6457e09190a35050565b7ff0c57e16840df040f15088dc2f81fe391c3923bec73e23a9662efc9c229c6a00805468010000000000000000810460ff1615906001600160401b03166000811580156200011f5750825b90506000826001600160401b031660011480156200013c5750303b155b9050811580156200014b575080155b156200016a5760405163f92ee8a960e01b815260040160405180910390fd5b84546001600160401b031916600117855583156200019957845460ff60401b1916680100000000000000001785555b620001a486620001f3565b8315620001eb57845460ff60401b19168555604051600181527fc7f505b2f371ae2175ee4913f4499e1f2633a7b5936321eed1cdaeb6115181d29060200160405180910390a15b505050505050565b620001fd62000281565b6001600160a01b038116620002555760405162461bcd60e51b815260206004820152601360248201527f4a6f62206d616e6167657220616464726573730000000000000000000000000060448201526064016200005c565b600180546001600160a01b039092166001600160a01b0319928316811790915560028054909216179055565b6000546001600160a01b03163314620002b05760405163118cdaa760e01b81523360048201526024016200005c565b565b80516001600160a01b0381168114620002ca57600080fd5b919050565b60008060408385031215620002e357600080fd5b620002ee83620002b2565b9150620002fe60208401620002b2565b90509250929050565b610a8580620003176000396000f3fe608060405234801561001057600080fd5b50600436106100885760003560e01c80638da5cb5b1161005b5780638da5cb5b146100e6578063c4d66de814610101578063ec67df4c14610114578063f2fde38b1461012757600080fd5b80633b89dcab1461008d57806364e26e30146100b65780636c0f1f58146100cb578063715018a6146100de575b600080fd5b6100a061009b3660046105ae565b61013a565b6040516100ad9190610617565b60405180910390f35b6100c96100c43660046106d4565b6101dc565b005b6100c96100d9366004610711565b6102fe565b6100c961034a565b6000546040516001600160a01b0390911681526020016100ad565b6100c961010f36600461077e565b61035e565b6100c961012236600461077e565b61046e565b6100c961013536600461077e565b6104f3565b6000818152600360205260409020805460609190610157906107a7565b80601f0160208091040260200160405190810160405280929190818152602001828054610183906107a7565b80156101d05780601f106101a5576101008083540402835291602001916101d0565b820191906000526020600020905b8154815290600101906020018083116101b357829003601f168201915b50505050509050919050565b604080516001808252818301909252600091816020015b60608152602001906001900390816101f35790505090508160405160200161021b91906107e1565b6040516020818303038152906040528160008151811061023d5761023d610812565b60209081029190910101526002546040516363aaaafd60e11b81526000916001600160a01b03169063c75555fa9061027b9085903390600401610828565b6020604051808303816000875af115801561029a573d6000803e3d6000fd5b505050506040513d601f19601f820116820180604052508101906102be91906108db565b90507fb63f0fdfb200b05c8b95fb4dcf8f8abd30f0b6884d532792e705afab4f37380a81846040516102f19291906108f4565b60405180910390a1505050565b6000838152600360205260409020610316828261095a565b507f3849c58b4b39b379bddc5973e71a10ded174f54140916d81986c7eec092e5c428383836040516102f193929190610a1a565b610352610531565b61035c600061055e565b565b7ff0c57e16840df040f15088dc2f81fe391c3923bec73e23a9662efc9c229c6a008054600160401b810460ff16159067ffffffffffffffff166000811580156103a45750825b905060008267ffffffffffffffff1660011480156103c15750303b155b9050811580156103cf575080155b156103ed5760405163f92ee8a960e01b815260040160405180910390fd5b845467ffffffffffffffff19166001178555831561041757845460ff60401b1916600160401b1785555b6104208661046e565b831561046657845460ff60401b19168555604051600181527fc7f505b2f371ae2175ee4913f4499e1f2633a7b5936321eed1cdaeb6115181d29060200160405180910390a15b505050505050565b610476610531565b6001600160a01b0381166104c75760405162461bcd60e51b81526020600482015260136024820152724a6f62206d616e61676572206164647265737360681b60448201526064015b60405180910390fd5b600180546001600160a01b039092166001600160a01b0319928316811790915560028054909216179055565b6104fb610531565b6001600160a01b03811661052557604051631e4fbdf760e01b8152600060048201526024016104be565b61052e8161055e565b50565b6000546001600160a01b0316331461035c5760405163118cdaa760e01b81523360048201526024016104be565b600080546001600160a01b038381166001600160a01b0319831681178455604051919092169283917f8be0079c531659141344cd1fd0a4f28419497f9722a3daafe3b4186f6b6457e09190a35050565b6000602082840312156105c057600080fd5b5035919050565b60005b838110156105e25781810151838201526020016105ca565b50506000910152565b600081518084526106038160208601602086016105c7565b601f01601f19169290920160200192915050565b60208152600061062a60208301846105eb565b9392505050565b634e487b7160e01b600052604160045260246000fd5b600082601f83011261065857600080fd5b813567ffffffffffffffff8082111561067357610673610631565b604051601f8301601f19908116603f0116810190828211818310171561069b5761069b610631565b816040528381528660208588010111156106b457600080fd5b836020870160208301376000602085830101528094505050505092915050565b6000602082840312156106e657600080fd5b813567ffffffffffffffff8111156106fd57600080fd5b61070984828501610647565b949350505050565b60008060006060848603121561072657600080fd5b83359250602084013567ffffffffffffffff8082111561074557600080fd5b61075187838801610647565b9350604086013591508082111561076757600080fd5b5061077486828701610647565b9150509250925092565b60006020828403121561079057600080fd5b81356001600160a01b038116811461062a57600080fd5b600181811c908216806107bb57607f821691505b6020821081036107db57634e487b7160e01b600052602260045260246000fd5b50919050565b68696e7075744369643d60b81b8152600082516108058160098501602087016105c7565b9190910160090192915050565b634e487b7160e01b600052603260045260246000fd5b60608152602360608201527f6769746875622e636f6d2f616966612f616e696d6f6964732d64663a76302e306080820152620b8c4d60ea1b60a0820152600060c08201602060c0602085015281865180845260e08601915060e08160051b87010193506020880160005b828110156108c05760df198887030184526108ae8683516105eb565b95509284019290840190600101610892565b505050506001600160a01b038516604085015250905061062a565b6000602082840312156108ed57600080fd5b5051919050565b82815260406020820152600061070960408301846105eb565b601f821115610955576000816000526020600020601f850160051c810160208610156109365750805b601f850160051c820191505b8181101561046657828155600101610942565b505050565b815167ffffffffffffffff81111561097457610974610631565b6109888161098284546107a7565b8461090d565b602080601f8311600181146109bd57600084156109a55750858301515b600019600386901b1c1916600185901b178555610466565b600085815260208120601f198616915b828110156109ec578886015182559484019460019091019084016109cd565b5085821015610a0a5787850151600019600388901b60f8161c191681555b5050505050600190811b01905550565b838152606060208201526000610a3360608301856105eb565b8281036040840152610a4581856105eb565b969550505050505056fea26469706673582212206de051fa2a981ebf70c1e701dd81e3ced589d7a8154416280d28cf1f439a068364736f6c63430008180033","linkReferences":{}},"methodIdentifiers":{"getJobResult(uint256)":"3b89dcab","initialize(address)":"c4d66de8","owner()":"8da5cb5b","renounceOwnership()":"715018a6","runVideoScanner(string)":"64e26e30","setJobManagerAddress(address)":"ec67df4c","submitResults(uint256,string,string)":"6c0f1f58","transferOwnership(address)":"f2fde38b"},"id":23}